{
  "_format": "hh-sol-artifact-1",
  "contractName": "Web3Voting",
  "sourceName": "contracts/Web3Voting.sol",
  "abi": [
    {
      "inputs": [],
      "stateMutability": "nonpayable",
      "type": "constructor"
    },
    {
      "anonymous": false,
      "inputs": [
        {
          "indexed": true,
          "internalType": "uint256",
          "name": "_candidateId",
          "type": "uint256"
        }
      ],
      "name": "VoteEvent",
      "type": "event"
    },
    {
      "inputs": [],
      "name": "candidateCount",
      "outputs": [
        {
          "internalType": "uint256",
          "name": "",
          "type": "uint256"
        }
      ],
      "stateMutability": "view",
      "type": "function"
    },
    {
      "inputs": [
        {
          "internalType": "uint256",
          "name": "",
          "type": "uint256"
        }
      ],
      "name": "candidates",
      "outputs": [
        {
          "internalType": "uint256",
          "name": "id",
          "type": "uint256"
        },
        {
          "internalType": "string",
          "name": "name",
          "type": "string"
        },
        {
          "internalType": "uint256",
          "name": "voteCount",
          "type": "uint256"
        }
      ],
      "stateMutability": "view",
      "type": "function"
    },
    {
      "inputs": [
        {
          "internalType": "uint256",
          "name": "_candidateId",
          "type": "uint256"
        }
      ],
      "name": "getVoteCount",
      "outputs": [
        {
          "internalType": "uint256",
          "name": "",
          "type": "uint256"
        }
      ],
      "stateMutability": "view",
      "type": "function"
    },
    {
      "inputs": [
        {
          "internalType": "uint256",
          "name": "_candidateId",
          "type": "uint256"
        }
      ],
      "name": "vote",
      "outputs": [],
      "stateMutability": "nonpayable",
      "type": "function"
    },
    {
      "inputs": [
        {
          "internalType": "address",
          "name": "",
          "type": "address"
        }
      ],
      "name": "voters",
      "outputs": [
        {
          "internalType": "bool",
          "name": "",
          "type": "bool"
        }
      ],
      "stateMutability": "view",
      "type": "function"
    }
  ],
  "bytecode": "0x60806040523480156200001157600080fd5b5033600260006101000a81548173ffffffffffffffffffffffffffffffffffffffff021916908373ffffffffffffffffffffffffffffffffffffffff160217905550620000996040518060400160405280600a81526020017f43616e6469646174203100000000000000000000000000000000000000000000815250620000e560201b60201c565b620000df6040518060400160405280600a81526020017f43616e6469646174203200000000000000000000000000000000000000000000815250620000e560201b60201c565b62000656565b600260009054906101000a900473ffffffffffffffffffffffffffffffffffffffff1673ffffffffffffffffffffffffffffffffffffffff163373ffffffffffffffffffffffffffffffffffffffff161462000178576040517f08c379a00000000000000000000000000000000000000000000000000000000081526004016200016f9062000257565b60405180910390fd5b600160008154809291906200018d90620002b2565b91905055506040518060600160405280600154815260200182815260200160008152506000806001548152602001908152602001600020600082015181600001556020820151816001019081620001e591906200056f565b506040820151816002015590505050565b600082825260208201905092915050565b7f4e6f7420746865206f776e657200000000000000000000000000000000000000600082015250565b60006200023f600d83620001f6565b91506200024c8262000207565b602082019050919050565b60006020820190508181036000830152620002728162000230565b9050919050565b7f4e487b7100000000000000000000000000000000000000000000000000000000600052601160045260246000fd5b6000819050919050565b6000620002bf82620002a8565b91507fffffffffffffffffffffffffffffffffffffffffffffffffffffffffffffffff8203620002f457620002f362000279565b5b600182019050919050565b600081519050919050565b7f4e487b7100000000000000000000000000000000000000000000000000000000600052604160045260246000fd5b7f4e487b7100000000000000000000000000000000000000000000000000000000600052602260045260246000fd5b600060028204905060018216806200038157607f821691505b60208210810362000397576200039662000339565b5b50919050565b60008190508160005260206000209050919050565b60006020601f8301049050919050565b600082821b905092915050565b600060088302620004017fffffffffffffffffffffffffffffffffffffffffffffffffffffffffffffffff82620003c2565b6200040d8683620003c2565b95508019841693508086168417925050509392505050565b6000819050919050565b6000620004506200044a6200044484620002a8565b62000425565b620002a8565b9050919050565b6000819050919050565b6200046c836200042f565b620004846200047b8262000457565b848454620003cf565b825550505050565b600090565b6200049b6200048c565b620004a881848462000461565b505050565b5b81811015620004d057620004c460008262000491565b600181019050620004ae565b5050565b601f8211156200051f57620004e9816200039d565b620004f484620003b2565b8101602085101562000504578190505b6200051c6200051385620003b2565b830182620004ad565b50505b505050565b600082821c905092915050565b6000620005446000198460080262000524565b1980831691505092915050565b60006200055f838362000531565b9150826002028217905092915050565b6200057a82620002ff565b67ffffffffffffffff8111156200059657620005956200030a565b5b620005a2825462000368565b620005af828285620004d4565b600060209050601f831160018114620005e75760008415620005d2578287015190505b620005de858262000551565b8655506200064e565b601f198416620005f7866200039d565b60005b828110156200062157848901518255600182019150602085019450602081019050620005fa565b868310156200064157848901516200063d601f89168262000531565b8355505b6001600288020188555050505b505050505050565b6107b580620006666000396000f3fe608060405234801561001057600080fd5b50600436106100575760003560e01c80630121b93f1461005c5780633477ee2e14610078578063a3ec138d146100aa578063a9a981a3146100da578063b2c2f2e8146100f8575b600080fd5b610076600480360381019061007191906103ea565b610128565b005b610092600480360381019061008d91906103ea565b6102b8565b6040516100a1939291906104b6565b60405180910390f35b6100c460048036038101906100bf9190610552565b61036a565b6040516100d1919061059a565b60405180910390f35b6100e261038a565b6040516100ef91906105b5565b60405180910390f35b610112600480360381019061010d91906103ea565b610390565b60405161011f91906105b5565b60405180910390f35b600360003373ffffffffffffffffffffffffffffffffffffffff1673ffffffffffffffffffffffffffffffffffffffff16815260200190815260200160002060009054906101000a900460ff16156101b5576040517f08c379a00000000000000000000000000000000000000000000000000000000081526004016101ac9061061c565b60405180910390fd5b6000811180156101c6575060015481105b610205576040517f08c379a00000000000000000000000000000000000000000000000000000000081526004016101fc90610688565b60405180910390fd5b6001600360003373ffffffffffffffffffffffffffffffffffffffff1673ffffffffffffffffffffffffffffffffffffffff16815260200190815260200160002060006101000a81548160ff0219169083151502179055506000808281526020019081526020016000206002016000815480929190610283906106d7565b9190505550807fc00232df16a35660dbcdde113a8565e8848dc6202169f47b8f35e8c2511d40bc60405160405180910390a250565b60006020528060005260406000206000915090508060000154908060010180546102e19061074e565b80601f016020809104026020016040519081016040528092919081815260200182805461030d9061074e565b801561035a5780601f1061032f5761010080835404028352916020019161035a565b820191906000526020600020905b81548152906001019060200180831161033d57829003601f168201915b5050505050908060020154905083565b60036020528060005260406000206000915054906101000a900460ff1681565b60015481565b6000806000838152602001908152602001600020600201549050919050565b600080fd5b6000819050919050565b6103c7816103b4565b81146103d257600080fd5b50565b6000813590506103e4816103be565b92915050565b600060208284031215610400576103ff6103af565b5b600061040e848285016103d5565b91505092915050565b610420816103b4565b82525050565b600081519050919050565b600082825260208201905092915050565b60005b83811015610460578082015181840152602081019050610445565b60008484015250505050565b6000601f19601f8301169050919050565b600061048882610426565b6104928185610431565b93506104a2818560208601610442565b6104ab8161046c565b840191505092915050565b60006060820190506104cb6000830186610417565b81810360208301526104dd818561047d565b90506104ec6040830184610417565b949350505050565b600073ffffffffffffffffffffffffffffffffffffffff82169050919050565b600061051f826104f4565b9050919050565b61052f81610514565b811461053a57600080fd5b50565b60008135905061054c81610526565b92915050565b600060208284031215610568576105676103af565b5b60006105768482850161053d565b91505092915050565b60008115159050919050565b6105948161057f565b82525050565b60006020820190506105af600083018461058b565b92915050565b60006020820190506105ca6000830184610417565b92915050565b7f416c726561647920766f74650000000000000000000000000000000000000000600082015250565b6000610606600c83610431565b9150610611826105d0565b602082019050919050565b60006020820190508181036000830152610635816105f9565b9050919050565b7f556e6b6e6f776e2063616e646964617465000000000000000000000000000000600082015250565b6000610672601183610431565b915061067d8261063c565b602082019050919050565b600060208201905081810360008301526106a181610665565b9050919050565b7f4e487b7100000000000000000000000000000000000000000000000000000000600052601160045260246000fd5b60006106e2826103b4565b91507fffffffffffffffffffffffffffffffffffffffffffffffffffffffffffffffff8203610714576107136106a8565b5b600182019050919050565b7f4e487b7100000000000000000000000000000000000000000000000000000000600052602260045260246000fd5b6000600282049050600182168061076657607f821691505b6020821081036107795761077861071f565b5b5091905056fea26469706673582212206933ea4f888e1c7a02a970136375819dd6478ea909e71b4d792bace2b1d1f3f864736f6c63430008130033",
  "linkReferences": {},
  "deployedLinkReferences": {}
}